:0300000002000EED
:0C000E00787FE4F6D8FD75810F020055E4
:10021A00C0F9A4B0999282F88090BFFF303132338E
:06022A0034353637383987
:10024200020C0000020E000002080000020A000078
:1001DF00E4FDFCC3ED9FEC9E5015E4FAFB0BBB0056
:0F01EF00010AEB646E4A70F50DBD00010C80E44F
:0101FE0022DE
:10023000E4FDFCC3ED9FEC9E50070DBD00010C805A
:01024000F2CB
:01024100229A
:1001B900D2AF758921C2A9D28C758CFF758AECC220
:1001C900ABD28E758DFD758BFAC2B7C295C296C238
:0601D90097C2B6C2B42279
:03000B000202618D
:09026100758CFF758AECB2B7320E
:1001FF00E4FFFED2A9C2B4C2B6D2B4C2B430B5FDC8
:0A020F00D2B6AFA07E00C2B6C2A9AD
:0102190022C2
:10014A007580FFC290D291D292D293E50F90021A93
:10015A0093F5807F037E001202307580FFD290C231
:10016A0091D292D293E50993F5807F0212023075FB
:10017A0080FFD290D291C292D293E50B93F580225E
:0E025300758921C29FD29E758DFD758BFA2292
:10018A00C2997599413099FDC299EF90022693F56B
:10019A00993099FDC299ED90022693F5993099FD0F
:0F01AA00C299EB90022693F5993099FDC29922E4
:10009A001201B91202531201FF8E0C8F0D7C007DE2
:1000AA00641200F58E0E8F0FAE0CAF0D7C007D64CE
:1000BA001200F57E007F0ACFCDCFCECCCE1200F54E
:1000CA008E088F09AE0CAF0D7C007D0A1200F58CEC
:1000DA000A8D0BAB0BAA0AAD09AC08AF0FAE0E1214
:0B00EA00018A7F027E001201DF80AB64
:10001A0002009AE493A3F8E493A34003F68001F262
:10002A0008DFF48029E493A3F85407240CC8C333E7
:10003A00C4540F4420C8834004F456800146F6DFB6
:10004A00E4800B0102040810204080900242E47E02
:10005A00019360BCA3FF543F30E509541FFEE493AB
:10006A00A360010ECF54C025E060A840B8E493A372
:10007A00FAE493A3F8E493A3C8C582C8CAC583CA9D
:10008A00F0A3C8C582C8CAC583CADFE9DEE780BE55
:0102520000AB
:1000F500BC000BBE0029EF8DF084FFADF022E4CCEF
:10010500F875F008EF2FFFEE33FEEC33FCEE9DECB7
:10011500984005FCEE9DFE0FD5F0E9E4CEFD22EDFD
:10012500F8F5F0EE8420D21CFEADF075F008EF2F47
:10013500FFED33FD4007985006D5F0F222C398FD38
:050145000FD5F0EA22D5
:00000001FF
